{
  "contractName": "pyramidToken",
  "abi": [
    {
      "constant": true,
      "inputs": [],
      "name": "name",
      "outputs": [
        {
          "name": "",
          "type": "string"
        }
      ],
      "payable": false,
      "stateMutability": "view",
      "type": "function",
      "signature": "0x06fdde03"
    },
    {
      "constant": true,
      "inputs": [],
      "name": "decimals",
      "outputs": [
        {
          "name": "",
          "type": "uint8"
        }
      ],
      "payable": false,
      "stateMutability": "view",
      "type": "function",
      "signature": "0x313ce567"
    },
    {
      "constant": true,
      "inputs": [],
      "name": "__totalSupply",
      "outputs": [
        {
          "name": "",
          "type": "uint256"
        }
      ],
      "payable": false,
      "stateMutability": "view",
      "type": "function",
      "signature": "0x73ba8aff"
    },
    {
      "constant": true,
      "inputs": [],
      "name": "symbol",
      "outputs": [
        {
          "name": "",
          "type": "string"
        }
      ],
      "payable": false,
      "stateMutability": "view",
      "type": "function",
      "signature": "0x95d89b41"
    },
    {
      "inputs": [
        {
          "name": "__initialSupply",
          "type": "uint256"
        }
      ],
      "payable": false,
      "stateMutability": "nonpayable",
      "type": "constructor",
      "signature": "constructor"
    },
    {
      "constant": true,
      "inputs": [],
      "name": "totalSupply",
      "outputs": [
        {
          "name": "_totalSupply",
          "type": "uint256"
        }
      ],
      "payable": false,
      "stateMutability": "view",
      "type": "function",
      "signature": "0x18160ddd"
    },
    {
      "constant": true,
      "inputs": [
        {
          "name": "addr",
          "type": "address"
        }
      ],
      "name": "referedBy",
      "outputs": [
        {
          "name": "referer",
          "type": "address"
        }
      ],
      "payable": false,
      "stateMutability": "view",
      "type": "function",
      "signature": "0xe0fd08a5"
    },
    {
      "constant": true,
      "inputs": [
        {
          "name": "addr",
          "type": "address"
        }
      ],
      "name": "balanceOf",
      "outputs": [
        {
          "name": "balance",
          "type": "uint256"
        }
      ],
      "payable": false,
      "stateMutability": "view",
      "type": "function",
      "signature": "0x70a08231"
    },
    {
      "constant": true,
      "inputs": [
        {
          "name": "addr",
          "type": "address"
        }
      ],
      "name": "levelOf",
      "outputs": [
        {
          "name": "level",
          "type": "uint256"
        }
      ],
      "payable": false,
      "stateMutability": "view",
      "type": "function",
      "signature": "0x5c138c9d"
    },
    {
      "constant": false,
      "inputs": [
        {
          "name": "_to",
          "type": "address"
        },
        {
          "name": "_value",
          "type": "uint256"
        }
      ],
      "name": "transfer",
      "outputs": [
        {
          "name": "success",
          "type": "bool"
        }
      ],
      "payable": false,
      "stateMutability": "nonpayable",
      "type": "function",
      "signature": "0xa9059cbb"
    },
    {
      "constant": false,
      "inputs": [
        {
          "name": "_to",
          "type": "address"
        }
      ],
      "name": "extendReferral",
      "outputs": [
        {
          "name": "success",
          "type": "bool"
        }
      ],
      "payable": false,
      "stateMutability": "nonpayable",
      "type": "function",
      "signature": "0x8de74d06"
    },
    {
      "constant": false,
      "inputs": [
        {
          "name": "referer",
          "type": "address"
        }
      ],
      "name": "acceptReferral",
      "outputs": [
        {
          "name": "success",
          "type": "bool"
        }
      ],
      "payable": false,
      "stateMutability": "nonpayable",
      "type": "function",
      "signature": "0x26a1a480"
    },
    {
      "constant": false,
      "inputs": [],
      "name": "claimTriangles",
      "outputs": [
        {
          "name": "success",
          "type": "bool"
        }
      ],
      "payable": false,
      "stateMutability": "nonpayable",
      "type": "function",
      "signature": "0xe54c1ae5"
    }
  ],
  "bytecode": "0x60806040526000805534801561001457600080fd5b50604051602080610d828339810180604052602081101561003457600080fd5b810190808051906020019092919050505080600160003373ffffffffffffffffffffffffffffffffffffffff1673ffffffffffffffffffffffffffffffffffffffff168152602001908152602001600020819055506000600360003373ffffffffffffffffffffffffffffffffffffffff1673ffffffffffffffffffffffffffffffffffffffff168152602001908152602001600020819055508060008190555050610c9d806100e56000396000f3fe6080604052600436106100ba576000357c0100000000000000000000000000000000000000000000000000000000900463ffffffff16806306fdde03146100bf57806318160ddd1461014f57806326a1a4801461017a578063313ce567146101e35780635c138c9d1461021457806370a082311461027957806373ba8aff146102de5780638de74d061461030957806395d89b4114610372578063a9059cbb14610402578063e0fd08a514610475578063e54c1ae514610506575b600080fd5b3480156100cb57600080fd5b506100d4610535565b6040518080602001828103825283818151815260200191508051906020019080838360005b838110156101145780820151818401526020810190506100f9565b50505050905090810190601f1680156101415780820380516001836020036101000a031916815260200191505b509250505060405180910390f35b34801561015b57600080fd5b5061016461056e565b6040518082815260200191505060405180910390f35b34801561018657600080fd5b506101c96004803603602081101561019d57600080fd5b81019080803573ffffffffffffffffffffffffffffffffffffffff169060200190929190505050610577565b604051808215151515815260200191505060405180910390f35b3480156101ef57600080fd5b506101f861093b565b604051808260ff1660ff16815260200191505060405180910390f35b34801561022057600080fd5b506102636004803603602081101561023757600080fd5b81019080803573ffffffffffffffffffffffffffffffffffffffff169060200190929190505050610940565b6040518082815260200191505060405180910390f35b34801561028557600080fd5b506102c86004803603602081101561029c57600080fd5b81019080803573ffffffffffffffffffffffffffffffffffffffff169060200190929190505050610989565b6040518082815260200191505060405180910390f35b3480156102ea57600080fd5b506102f36109d2565b6040518082815260200191505060405180910390f35b34801561031557600080fd5b506103586004803603602081101561032c57600080fd5b81019080803573ffffffffffffffffffffffffffffffffffffffff1690602001909291905050506109d8565b604051808215151515815260200191505060405180910390f35b34801561037e57600080fd5b50610387610a9c565b6040518080602001828103825283818151815260200191508051906020019080838360005b838110156103c75780820151818401526020810190506103ac565b50505050905090810190601f1680156103f45780820380516001836020036101000a031916815260200191505b509250505060405180910390f35b34801561040e57600080fd5b5061045b6004803603604081101561042557600080fd5b81019080803573ffffffffffffffffffffffffffffffffffffffff16906020019092919080359060200190929190505050610ad5565b604051808215151515815260200191505060405180910390f35b34801561048157600080fd5b506104c46004803603602081101561049857600080fd5b81019080803573ffffffffffffffffffffffffffffffffffffffff169060200190929190505050610ba1565b604051808273ffffffffffffffffffffffffffffffffffffffff1673ffffffffffffffffffffffffffffffffffffffff16815260200191505060405180910390f35b34801561051257600080fd5b5061051b610c0a565b604051808215151515815260200191505060405180910390f35b6040805190810160405280600c81526020017f507972616d696420436f696e000000000000000000000000000000000000000081525081565b60008054905090565b60008173ffffffffffffffffffffffffffffffffffffffff16600260003373ffffffffffffffffffffffffffffffffffffffff1673ffffffffffffffffffffffffffffffffffffffff16815260200190815260200160002060009054906101000a900473ffffffffffffffffffffffffffffffffffffffff1673ffffffffffffffffffffffffffffffffffffffff1614151561061257600080fd5b60011515600460003373ffffffffffffffffffffffffffffffffffffffff1673ffffffffffffffffffffffffffffffffffffffff16815260200190815260200160002060009054906101000a90505050600160036000600260003373ffffffffffffffffffffffffffffffffffffffff1673ffffffffffffffffffffffffffffffffffffffff16815260200190815260200160002060009054906101000a900473ffffffffffffffffffffffffffffffffffffffff1673ffffffffffffffffffffffffffffffffffffffff1673ffffffffffffffffffffffffffffffffffffffff1681526020019081526020016000205401600360003373ffffffffffffffffffffffffffffffffffffffff1673ffffffffffffffffffffffffffffffffffffffff168152602001908152602001600020819055506005600160003373ffffffffffffffffffffffffffffffffffffffff1673ffffffffffffffffffffffffffffffffffffffff16815260200190815260200160002060008282540192505081905550600033905060008090505b6011811015610933576000600360008473ffffffffffffffffffffffffffffffffffffffff1673ffffffffffffffffffffffffffffffffffffffff1681526020019081526020016000205414806107f75750601081145b1561080757600192505050610936565b600560016000600260008673ffffffffffffffffffffffffffffffffffffffff1673ffffffffffffffffffffffffffffffffffffffff16815260200190815260200160002060009054906101000a900473ffffffffffffffffffffffffffffffffffffffff1673ffffffffffffffffffffffffffffffffffffffff1673ffffffffffffffffffffffffffffffffffffffff1681526020019081526020016000206000828254019250508190555060056000808282540192505081905550600260008373ffffffffffffffffffffffffffffffffffffffff1673ffffffffffffffffffffffffffffffffffffffff16815260200190815260200160002060009054906101000a900473ffffffffffffffffffffffffffffffffffffffff16915080806001019150506107a0565b50505b919050565b601281565b6000600360008373ffffffffffffffffffffffffffffffffffffffff1673ffffffffffffffffffffffffffffffffffffffff168152602001908152602001600020549050919050565b6000600160008373ffffffffffffffffffffffffffffffffffffffff1673ffffffffffffffffffffffffffffffffffffffff168152602001908152602001600020549050919050565b60005481565b60003373ffffffffffffffffffffffffffffffffffffffff168273ffffffffffffffffffffffffffffffffffffffff1614151515610a1557600080fd5b33600260008473ffffffffffffffffffffffffffffffffffffffff1673ffffffffffffffffffffffffffffffffffffffff16815260200190815260200160002060006101000a81548173ffffffffffffffffffffffffffffffffffffffff021916908373ffffffffffffffffffffffffffffffffffffffff16021790555060019050919050565b6040805190810160405280600381526020017f545249000000000000000000000000000000000000000000000000000000000081525081565b60008082118015610aee5750610aea33610989565b8211155b15610b965781600160003373ffffffffffffffffffffffffffffffffffffffff1673ffffffffffffffffffffffffffffffffffffffff1681526020019081526020016000206000828254039250508190555081600160008573ffffffffffffffffffffffffffffffffffffffff1673ffffffffffffffffffffffffffffffffffffffff1681526020019081526020016000206000828254019250508190555060019050610b9b565b600090505b92915050565b6000600260008373ffffffffffffffffffffffffffffffffffffffff1673ffffffffffffffffffffffffffffffffffffffff16815260200190815260200160002060009054906101000a900473ffffffffffffffffffffffffffffffffffffffff169050919050565b60006002600160003373ffffffffffffffffffffffffffffffffffffffff1673ffffffffffffffffffffffffffffffffffffffff1681526020019081526020016000206000828254019250508190555060026000808282540192505081905550600190509056fea165627a7a72305820574985387fa1d0ec6e3124ea8dc1726d8e9fee9c2c83f02f3462aded9a6e5bda0029",
  "source": "// SPDX-License-Identifier: MIT\npragma solidity >=0.4.22 <0.9.0;\n\ncontract pyramidToken {\n    string public constant name = \"Pyramid Coin\";\n    string public constant symbol = \"TRI\";\n    uint8 public constant decimals = 18;\n\n    uint256 public __totalSupply = 0;\n\n    constructor(uint256 __initialSupply) public {\n        __balanceOf[msg.sender] = __initialSupply;\n        __level[msg.sender] = 0;\n        __totalSupply = __initialSupply;\n    }\n\n    mapping(address => uint) private __balanceOf;\n    mapping(address => address) private __referredBy;\n    mapping(address => uint) private __level;\n    mapping(address => bool) private __acceptedReferral;\n\n    function totalSupply() public view returns (uint256 _totalSupply) {\n        _totalSupply = __totalSupply;\n    }\n\n    function referedBy(address addr) public view returns (address referer) {\n        return __referredBy[addr];\n    }\n\n    function balanceOf(address addr) public view returns (uint256 balance) {\n        return __balanceOf[addr];\n    }\n\n    function levelOf(address addr) public view returns (uint256 level) {\n        return __level[addr];\n    }\n\n    function transfer(address _to, uint256 _value) public returns (bool success) {\n        if (_value > 0 && _value <= balanceOf(msg.sender)) {\n            __balanceOf[msg.sender] -= _value;\n            __balanceOf[_to] += _value;\n            return true;\n        }\n        return false;\n    }\n\n    function extendReferral(address _to) public returns (bool success) {\n        // Require that the sender cannot refer themselves\n        require(_to != msg.sender);\n\n        // Extend referral\n        __referredBy[_to] = msg.sender;\n        return true;\n    }\n\n    // Payout the previous referrals\n\n    function acceptReferral(address referer) public returns (bool success) {\n        // Require that the person was refered and that the value is not the default value, address(0)\n        require(__referredBy[msg.sender] == referer);\n\n        __acceptedReferral[msg.sender] == true;\n\n        // Set level of referee to 1 further down than the referer\n        __level[msg.sender] = __level[__referredBy[msg.sender]] + 1;\n\n        // Give joiner some triangles\n        __balanceOf[msg.sender] += 5;\n\n        address wallet = msg.sender;\n        \n        // Payout levels starting from bottom up to top working through who refered who\n        for (uint i = 0; i < 17; i++) {\n            if (__level[wallet] == 0 || i == 16) {\n                return true;\n            }\n            else {\n                __balanceOf[__referredBy[wallet]] += 5;\n                __totalSupply += 5;\n                wallet = __referredBy[wallet];\n            }\n        }\n    }\n\n    function claimTriangles() public returns (bool success) {\n        __balanceOf[msg.sender] += 2;\n        __totalSupply += 2;\n        return true;\n    }\n\n}",
  "sourcePath": "/Users/seanroades/Desktop/projects/pyramid/pyramid-blockchain/contracts/pyramidToken.sol",
  "compiler": {
    "name": "solc",
    "version": "0.5.0+commit.1d4f565a.Emscripten.clang"
  },
  "schemaVersion": "3.0.1",
  "updatedAt": "2021-04-29T23:30:49.802Z",
  "devdoc": {
    "methods": {}
  },
  "userdoc": {
    "methods": {}
  }
}